{
  "contractName": "DStorage",
  "abi": [
    {
      "constant": true,
      "inputs": [],
      "name": "name",
      "outputs": [
        {
          "name": "",
          "type": "string"
        }
      ],
      "payable": false,
      "stateMutability": "view",
      "type": "function",
      "signature": "0x06fdde03"
    },
    {
      "constant": true,
      "inputs": [],
      "name": "fileCount",
      "outputs": [
        {
          "name": "",
          "type": "uint256"
        }
      ],
      "payable": false,
      "stateMutability": "view",
      "type": "function",
      "signature": "0x43953519"
    },
    {
      "constant": true,
      "inputs": [
        {
          "name": "",
          "type": "uint256"
        }
      ],
      "name": "files",
      "outputs": [
        {
          "name": "fileId",
          "type": "uint256"
        },
        {
          "name": "fileHash",
          "type": "string"
        },
        {
          "name": "fileSize",
          "type": "uint256"
        },
        {
          "name": "fileType",
          "type": "string"
        },
        {
          "name": "fileName",
          "type": "string"
        },
        {
          "name": "fileDescription",
          "type": "string"
        },
        {
          "name": "uploadTime",
          "type": "uint256"
        },
        {
          "name": "upvotes",
          "type": "int256"
        },
        {
          "name": "uploader",
          "type": "address"
        }
      ],
      "payable": false,
      "stateMutability": "view",
      "type": "function",
      "signature": "0xf4c714b4"
    },
    {
      "inputs": [],
      "payable": false,
      "stateMutability": "nonpayable",
      "type": "constructor",
      "signature": "constructor"
    },
    {
      "anonymous": false,
      "inputs": [
        {
          "indexed": false,
          "name": "fileId",
          "type": "uint256"
        },
        {
          "indexed": false,
          "name": "fileHash",
          "type": "string"
        },
        {
          "indexed": false,
          "name": "fileSize",
          "type": "uint256"
        },
        {
          "indexed": false,
          "name": "fileType",
          "type": "string"
        },
        {
          "indexed": false,
          "name": "fileName",
          "type": "string"
        },
        {
          "indexed": false,
          "name": "fileDescription",
          "type": "string"
        },
        {
          "indexed": false,
          "name": "uploadTime",
          "type": "uint256"
        },
        {
          "indexed": false,
          "name": "upvotes",
          "type": "int256"
        },
        {
          "indexed": false,
          "name": "uploader",
          "type": "address"
        }
      ],
      "name": "FileUploaded",
      "type": "event",
      "signature": "0x269afa016af1cdcf20a38b861dcdd8f55c64ffe94dd68566f5b6254b07178815"
    },
    {
      "constant": false,
      "inputs": [
        {
          "name": "_fileId",
          "type": "uint256"
        }
      ],
      "name": "fileUpvoted",
      "outputs": [],
      "payable": false,
      "stateMutability": "nonpayable",
      "type": "function",
      "signature": "0x85faf6b3"
    },
    {
      "constant": false,
      "inputs": [
        {
          "name": "_fileId",
          "type": "uint256"
        }
      ],
      "name": "fileDownvoted",
      "outputs": [],
      "payable": false,
      "stateMutability": "nonpayable",
      "type": "function",
      "signature": "0x7c2cc8d6"
    },
    {
      "constant": false,
      "inputs": [
        {
          "name": "_fileHash",
          "type": "string"
        },
        {
          "name": "_fileSize",
          "type": "uint256"
        },
        {
          "name": "_fileType",
          "type": "string"
        },
        {
          "name": "_fileName",
          "type": "string"
        },
        {
          "name": "_fileDescription",
          "type": "string"
        }
      ],
      "name": "uploadFile",
      "outputs": [],
      "payable": false,
      "stateMutability": "nonpayable",
      "type": "function",
      "signature": "0xe82d9d33"
    }
  ],
  "bytecode": "0x60806040526040805190810160405280600881526020017f4453746f726167650000000000000000000000000000000000000000000000008152506000908051906020019061004f929190610067565b50600060015534801561006157600080fd5b5061010c565b828054600181600116156101000203166002900490600052602060002090601f016020900481019282601f106100a857805160ff19168380011785556100d6565b828001600101855582156100d6579182015b828111156100d55782518255916020019190600101906100ba565b5b5090506100e391906100e7565b5090565b61010991905b808211156101055760008160009055506001016100ed565b5090565b90565b610f568061011b6000396000f3fe608060405260043610610078576000357c0100000000000000000000000000000000000000000000000000000000900463ffffffff16806306fdde031461007d578063439535191461010d5780637c2cc8d61461013857806385faf6b314610173578063e82d9d33146101ae578063f4c714b414610445575b600080fd5b34801561008957600080fd5b5061009261068c565b6040518080602001828103825283818151815260200191508051906020019080838360005b838110156100d25780820151818401526020810190506100b7565b50505050905090810190601f1680156100ff5780820380516001836020036101000a031916815260200191505b509250505060405180910390f35b34801561011957600080fd5b5061012261072a565b6040518082815260200191505060405180910390f35b34801561014457600080fd5b506101716004803603602081101561015b57600080fd5b8101908080359060200190929190505050610730565b005b34801561017f57600080fd5b506101ac6004803603602081101561019657600080fd5b810190808035906020019092919050505061075a565b005b3480156101ba57600080fd5b50610443600480360360a08110156101d157600080fd5b81019080803590602001906401000000008111156101ee57600080fd5b82018360208201111561020057600080fd5b8035906020019184600183028401116401000000008311171561022257600080fd5b91908080601f016020809104026020016040519081016040528093929190818152602001838380828437600081840152601f19601f820116905080830192505050505050509192919290803590602001909291908035906020019064010000000081111561028f57600080fd5b8201836020820111156102a157600080fd5b803590602001918460018302840111640100000000831117156102c357600080fd5b91908080601f016020809104026020016040519081016040528093929190818152602001838380828437600081840152601f19601f8201169050808301925050505050505091929192908035906020019064010000000081111561032657600080fd5b82018360208201111561033857600080fd5b8035906020019184600183028401116401000000008311171561035a57600080fd5b91908080601f016020809104026020016040519081016040528093929190818152602001838380828437600081840152601f19601f820116905080830192505050505050509192919290803590602001906401000000008111156103bd57600080fd5b8201836020820111156103cf57600080fd5b803590602001918460018302840111640100000000831117156103f157600080fd5b91908080601f016020809104026020016040519081016040528093929190818152602001838380828437600081840152601f19601f820116905080830192505050505050509192919290505050610783565b005b34801561045157600080fd5b5061047e6004803603602081101561046857600080fd5b8101908080359060200190929190505050610bb7565b604051808a8152602001806020018981526020018060200180602001806020018881526020018781526020018673ffffffffffffffffffffffffffffffffffffffff1673ffffffffffffffffffffffffffffffffffffffff16815260200185810385528d818151815260200191508051906020019080838360005b838110156105145780820151818401526020810190506104f9565b50505050905090810190601f1680156105415780820380516001836020036101000a031916815260200191505b5085810384528b818151815260200191508051906020019080838360005b8381101561057a57808201518184015260208101905061055f565b50505050905090810190601f1680156105a75780820380516001836020036101000a031916815260200191505b5085810383528a818151815260200191508051906020019080838360005b838110156105e05780820151818401526020810190506105c5565b50505050905090810190601f16801561060d5780820380516001836020036101000a031916815260200191505b50858103825289818151815260200191508051906020019080838360005b8381101561064657808201518184015260208101905061062b565b50505050905090810190601f1680156106735780820380516001836020036101000a031916815260200191505b509d505050505050505050505050505060405180910390f35b60008054600181600116156101000203166002900480601f0160208091040260200160405190810160405280929190818152602001828054600181600116156101000203166002900480156107225780601f106106f757610100808354040283529160200191610722565b820191906000526020600020905b81548152906001019060200180831161070557829003601f168201915b505050505081565b60015481565b60026000828152602001908152602001600020600701600081548092919060019003919050555050565b600260008281526020019081526020016000206007016000815480929190600101919050555050565b6000855111151561079357600080fd5b600083511115156107a357600080fd5b600081511115156107b357600080fd5b600082511115156107c357600080fd5b600073ffffffffffffffffffffffffffffffffffffffff163373ffffffffffffffffffffffffffffffffffffffff16141515156107ff57600080fd5b60008411151561080e57600080fd5b600160008154809291906001019190505550610120604051908101604052806001548152602001868152602001858152602001848152602001838152602001828152602001428152602001600081526020013373ffffffffffffffffffffffffffffffffffffffff168152506002600060015481526020019081526020016000206000820151816000015560208201518160010190805190602001906108b5929190610e85565b506040820151816002015560608201518160030190805190602001906108dc929190610e85565b5060808201518160040190805190602001906108f9929190610e85565b5060a0820151816005019080519060200190610916929190610e85565b5060c0820151816006015560e082015181600701556101008201518160080160006101000a81548173ffffffffffffffffffffffffffffffffffffffff021916908373ffffffffffffffffffffffffffffffffffffffff1602179055509050507f269afa016af1cdcf20a38b861dcdd8f55c64ffe94dd68566f5b6254b07178815600154868686868642600033604051808a8152602001806020018981526020018060200180602001806020018881526020018781526020018673ffffffffffffffffffffffffffffffffffffffff1673ffffffffffffffffffffffffffffffffffffffff16815260200185810385528d818151815260200191508051906020019080838360005b83811015610a39578082015181840152602081019050610a1e565b50505050905090810190601f168015610a665780820380516001836020036101000a031916815260200191505b5085810384528b818151815260200191508051906020019080838360005b83811015610a9f578082015181840152602081019050610a84565b50505050905090810190601f168015610acc5780820380516001836020036101000a031916815260200191505b5085810383528a818151815260200191508051906020019080838360005b83811015610b05578082015181840152602081019050610aea565b50505050905090810190601f168015610b325780820380516001836020036101000a031916815260200191505b50858103825289818151815260200191508051906020019080838360005b83811015610b6b578082015181840152602081019050610b50565b50505050905090810190601f168015610b985780820380516001836020036101000a031916815260200191505b509d505050505050505050505050505060405180910390a15050505050565b6002602052806000526040600020600091509050806000015490806001018054600181600116156101000203166002900480601f016020809104026020016040519081016040528092919081815260200182805460018160011615610100020316600290048015610c695780601f10610c3e57610100808354040283529160200191610c69565b820191906000526020600020905b815481529060010190602001808311610c4c57829003601f168201915b505050505090806002015490806003018054600181600116156101000203166002900480601f016020809104026020016040519081016040528092919081815260200182805460018160011615610100020316600290048015610d0d5780601f10610ce257610100808354040283529160200191610d0d565b820191906000526020600020905b815481529060010190602001808311610cf057829003601f168201915b505050505090806004018054600181600116156101000203166002900480601f016020809104026020016040519081016040528092919081815260200182805460018160011615610100020316600290048015610dab5780601f10610d8057610100808354040283529160200191610dab565b820191906000526020600020905b815481529060010190602001808311610d8e57829003601f168201915b505050505090806005018054600181600116156101000203166002900480601f016020809104026020016040519081016040528092919081815260200182805460018160011615610100020316600290048015610e495780601f10610e1e57610100808354040283529160200191610e49565b820191906000526020600020905b815481529060010190602001808311610e2c57829003601f168201915b5050505050908060060154908060070154908060080160009054906101000a900473ffffffffffffffffffffffffffffffffffffffff16905089565b828054600181600116156101000203166002900490600052602060002090601f016020900481019282601f10610ec657805160ff1916838001178555610ef4565b82800160010185558215610ef4579182015b82811115610ef3578251825591602001919060010190610ed8565b5b509050610f019190610f05565b5090565b610f2791905b80821115610f23576000816000905550600101610f0b565b5090565b9056fea165627a7a723058202ef6158b77fbf5a72e31c0ce54075152801a73c61aa65d444908936cea5818e40029",
  "source": "// SPDX-License-Identifier: MIT\npragma solidity >=0.5.0 <0.9.0;\n\ncontract DStorage {\n  // Name\n  string public name = 'DStorage';\n  // Number of files\n  uint public fileCount = 0;\n  // Mapping fileId=>Struct \n  mapping( uint => File) public files;\n\n  // Struct\n  struct File{\n   uint fileId;\n   string fileHash;\n   uint fileSize;\n   string fileType;\n   string fileName;\n   string fileDescription;\n   uint uploadTime;\n   int upvotes;\n   address payable uploader; \n  }\n\n\n  // Event\n  event FileUploaded(\n    uint fileId,\n    string fileHash,\n    uint fileSize,\n    string fileType,\n    string fileName,\n    string fileDescription,\n    uint uploadTime,\n    int upvotes,\n    address payable uploader\n  );\n\n  constructor() public {\n  }\n  \n  function fileUpvoted(uint _fileId) public {\n    files[_fileId].upvotes++;\n  }\n  function fileDownvoted(uint _fileId) public {\n    files[_fileId].upvotes--;\n  }\n\n  // Upload File function\n  function uploadFile(string memory _fileHash,uint _fileSize,string memory _fileType,string memory _fileName,string memory _fileDescription) public {\n    // Make sure the file hash exists\n      require(bytes(_fileHash).length > 0);\n    // Make sure file type exists\n      require(bytes(_fileType).length > 0);\n    // Make sure file description exists\n      require(bytes(_fileDescription).length > 0);\n    // Make sure file fileName exists\n      require(bytes(_fileName).length > 0);\n    // Make sure uploader address exists\n      require(msg.sender!=address(0));\n    // Make sure file size is more than 0\n      require(_fileSize>0);\n\n\n    // Increment file id\n    fileCount++;\n    // Add File to the contract\n    files[fileCount] = File(fileCount, _fileHash, _fileSize, _fileType, _fileName, _fileDescription,block.timestamp, 0,msg.sender);\n\n    // Trigger an event\n    emit FileUploaded(fileCount,_fileHash,_fileSize,_fileType,_fileName,_fileDescription,block.timestamp,0,msg.sender);\n  }\n\n}",
  "sourcePath": "/home/bhanu/blockchain/dstorage/src/contracts/DStorage.sol",
  "compiler": {
    "name": "solc",
    "version": "0.5.0+commit.1d4f565a.Emscripten.clang"
  },
  "schemaVersion": "3.0.1",
  "updatedAt": "2021-12-09T09:46:48.666Z",
  "devdoc": {
    "methods": {}
  },
  "userdoc": {
    "methods": {}
  }
}