{
  "contractName": "DStorage",
  "abi": [
    {
      "constant": true,
      "inputs": [],
      "name": "name",
      "outputs": [
        {
          "name": "",
          "type": "string"
        }
      ],
      "payable": false,
      "stateMutability": "view",
      "type": "function",
      "signature": "0x06fdde03"
    },
    {
      "constant": true,
      "inputs": [],
      "name": "fileCount",
      "outputs": [
        {
          "name": "",
          "type": "uint256"
        }
      ],
      "payable": false,
      "stateMutability": "view",
      "type": "function",
      "signature": "0x43953519"
    },
    {
      "constant": true,
      "inputs": [
        {
          "name": "",
          "type": "uint256"
        }
      ],
      "name": "files",
      "outputs": [
        {
          "name": "fileId",
          "type": "uint256"
        },
        {
          "name": "fileHash",
          "type": "string"
        },
        {
          "name": "fileSize",
          "type": "uint256"
        },
        {
          "name": "fileType",
          "type": "string"
        },
        {
          "name": "fileName",
          "type": "string"
        },
        {
          "name": "fileDescription",
          "type": "string"
        },
        {
          "name": "uploadTime",
          "type": "uint256"
        },
        {
          "name": "uploader",
          "type": "address"
        }
      ],
      "payable": false,
      "stateMutability": "view",
      "type": "function",
      "signature": "0xf4c714b4"
    },
    {
      "inputs": [],
      "payable": false,
      "stateMutability": "nonpayable",
      "type": "constructor",
      "signature": "constructor"
    },
    {
      "anonymous": false,
      "inputs": [
        {
          "indexed": false,
          "name": "fileId",
          "type": "uint256"
        },
        {
          "indexed": false,
          "name": "fileHash",
          "type": "string"
        },
        {
          "indexed": false,
          "name": "fileSize",
          "type": "uint256"
        },
        {
          "indexed": false,
          "name": "fileType",
          "type": "string"
        },
        {
          "indexed": false,
          "name": "fileName",
          "type": "string"
        },
        {
          "indexed": false,
          "name": "fileDescription",
          "type": "string"
        },
        {
          "indexed": false,
          "name": "uploadTime",
          "type": "uint256"
        },
        {
          "indexed": false,
          "name": "uploader",
          "type": "address"
        }
      ],
      "name": "FileUploaded",
      "type": "event",
      "signature": "0x6e95bbaa37a5fdec42a312e049dea2fe6160ebe659214d3409b4f91f164c2f52"
    },
    {
      "constant": false,
      "inputs": [
        {
          "name": "_fileHash",
          "type": "string"
        },
        {
          "name": "_fileSize",
          "type": "uint256"
        },
        {
          "name": "_fileType",
          "type": "string"
        },
        {
          "name": "_fileName",
          "type": "string"
        },
        {
          "name": "_fileDescription",
          "type": "string"
        },
        {
          "name": "",
          "type": "uint256"
        }
      ],
      "name": "uploadFile",
      "outputs": [],
      "payable": false,
      "stateMutability": "nonpayable",
      "type": "function",
      "signature": "0x5138241e"
    }
  ],
  "bytecode": "0x60806040526040805190810160405280600881526020017f4453746f726167650000000000000000000000000000000000000000000000008152506000908051906020019061004f929190610067565b50600060015534801561006157600080fd5b5061010c565b828054600181600116156101000203166002900490600052602060002090601f016020900481019282601f106100a857805160ff19168380011785556100d6565b828001600101855582156100d6579182015b828111156100d55782518255916020019190600101906100ba565b5b5090506100e391906100e7565b5090565b61010991905b808211156101055760008160009055506001016100ed565b5090565b90565b610e5a8061011b6000396000f3fe608060405260043610610062576000357c0100000000000000000000000000000000000000000000000000000000900463ffffffff16806306fdde031461006757806343953519146100f75780635138241e14610122578063f4c714b4146103c3575b600080fd5b34801561007357600080fd5b5061007c610603565b6040518080602001828103825283818151815260200191508051906020019080838360005b838110156100bc5780820151818401526020810190506100a1565b50505050905090810190601f1680156100e95780820380516001836020036101000a031916815260200191505b509250505060405180910390f35b34801561010357600080fd5b5061010c6106a1565b6040518082815260200191505060405180910390f35b34801561012e57600080fd5b506103c1600480360360c081101561014557600080fd5b810190808035906020019064010000000081111561016257600080fd5b82018360208201111561017457600080fd5b8035906020019184600183028401116401000000008311171561019657600080fd5b91908080601f016020809104026020016040519081016040528093929190818152602001838380828437600081840152601f19601f820116905080830192505050505050509192919290803590602001909291908035906020019064010000000081111561020357600080fd5b82018360208201111561021557600080fd5b8035906020019184600183028401116401000000008311171561023757600080fd5b91908080601f016020809104026020016040519081016040528093929190818152602001838380828437600081840152601f19601f8201169050808301925050505050505091929192908035906020019064010000000081111561029a57600080fd5b8201836020820111156102ac57600080fd5b803590602001918460018302840111640100000000831117156102ce57600080fd5b91908080601f016020809104026020016040519081016040528093929190818152602001838380828437600081840152601f19601f8201169050808301925050505050505091929192908035906020019064010000000081111561033157600080fd5b82018360208201111561034357600080fd5b8035906020019184600183028401116401000000008311171561036557600080fd5b91908080601f016020809104026020016040519081016040528093929190818152602001838380828437600081840152601f19601f820116905080830192505050505050509192919290803590602001909291905050506106a7565b005b3480156103cf57600080fd5b506103fc600480360360208110156103e657600080fd5b8101908080359060200190929190505050610ac1565b60405180898152602001806020018881526020018060200180602001806020018781526020018673ffffffffffffffffffffffffffffffffffffffff1673ffffffffffffffffffffffffffffffffffffffff16815260200185810385528c818151815260200191508051906020019080838360005b8381101561048c578082015181840152602081019050610471565b50505050905090810190601f1680156104b95780820380516001836020036101000a031916815260200191505b5085810384528a818151815260200191508051906020019080838360005b838110156104f25780820151818401526020810190506104d7565b50505050905090810190601f16801561051f5780820380516001836020036101000a031916815260200191505b50858103835289818151815260200191508051906020019080838360005b8381101561055857808201518184015260208101905061053d565b50505050905090810190601f1680156105855780820380516001836020036101000a031916815260200191505b50858103825288818151815260200191508051906020019080838360005b838110156105be5780820151818401526020810190506105a3565b50505050905090810190601f1680156105eb5780820380516001836020036101000a031916815260200191505b509c5050505050505050505050505060405180910390f35b60008054600181600116156101000203166002900480601f0160208091040260200160405190810160405280929190818152602001828054600181600116156101000203166002900480156106995780601f1061066e57610100808354040283529160200191610699565b820191906000526020600020905b81548152906001019060200180831161067c57829003601f168201915b505050505081565b60015481565b600086511115156106b757600080fd5b600084511115156106c757600080fd5b600082511115156106d757600080fd5b600083511115156106e757600080fd5b600073ffffffffffffffffffffffffffffffffffffffff163373ffffffffffffffffffffffffffffffffffffffff161415151561072357600080fd5b60008511151561073257600080fd5b6001600081548092919060010191905055506101006040519081016040528060015481526020018781526020018681526020018581526020018481526020018381526020014281526020013373ffffffffffffffffffffffffffffffffffffffff168152506002600060015481526020019081526020016000206000820151816000015560208201518160010190805190602001906107d2929190610d89565b506040820151816002015560608201518160030190805190602001906107f9929190610d89565b506080820151816004019080519060200190610816929190610d89565b5060a0820151816005019080519060200190610833929190610d89565b5060c0820151816006015560e08201518160070160006101000a81548173ffffffffffffffffffffffffffffffffffffffff021916908373ffffffffffffffffffffffffffffffffffffffff1602179055509050507f6e95bbaa37a5fdec42a312e049dea2fe6160ebe659214d3409b4f91f164c2f526001548787878787423360405180898152602001806020018881526020018060200180602001806020018781526020018673ffffffffffffffffffffffffffffffffffffffff1673ffffffffffffffffffffffffffffffffffffffff16815260200185810385528c818151815260200191508051906020019080838360005b83811015610943578082015181840152602081019050610928565b50505050905090810190601f1680156109705780820380516001836020036101000a031916815260200191505b5085810384528a818151815260200191508051906020019080838360005b838110156109a957808201518184015260208101905061098e565b50505050905090810190601f1680156109d65780820380516001836020036101000a031916815260200191505b50858103835289818151815260200191508051906020019080838360005b83811015610a0f5780820151818401526020810190506109f4565b50505050905090810190601f168015610a3c5780820380516001836020036101000a031916815260200191505b50858103825288818151815260200191508051906020019080838360005b83811015610a75578082015181840152602081019050610a5a565b50505050905090810190601f168015610aa25780820380516001836020036101000a031916815260200191505b509c5050505050505050505050505060405180910390a1505050505050565b6002602052806000526040600020600091509050806000015490806001018054600181600116156101000203166002900480601f016020809104026020016040519081016040528092919081815260200182805460018160011615610100020316600290048015610b735780601f10610b4857610100808354040283529160200191610b73565b820191906000526020600020905b815481529060010190602001808311610b5657829003601f168201915b505050505090806002015490806003018054600181600116156101000203166002900480601f016020809104026020016040519081016040528092919081815260200182805460018160011615610100020316600290048015610c175780601f10610bec57610100808354040283529160200191610c17565b820191906000526020600020905b815481529060010190602001808311610bfa57829003601f168201915b505050505090806004018054600181600116156101000203166002900480601f016020809104026020016040519081016040528092919081815260200182805460018160011615610100020316600290048015610cb55780601f10610c8a57610100808354040283529160200191610cb5565b820191906000526020600020905b815481529060010190602001808311610c9857829003601f168201915b505050505090806005018054600181600116156101000203166002900480601f016020809104026020016040519081016040528092919081815260200182805460018160011615610100020316600290048015610d535780601f10610d2857610100808354040283529160200191610d53565b820191906000526020600020905b815481529060010190602001808311610d3657829003601f168201915b5050505050908060060154908060070160009054906101000a900473ffffffffffffffffffffffffffffffffffffffff16905088565b828054600181600116156101000203166002900490600052602060002090601f016020900481019282601f10610dca57805160ff1916838001178555610df8565b82800160010185558215610df8579182015b82811115610df7578251825591602001919060010190610ddc565b5b509050610e059190610e09565b5090565b610e2b91905b80821115610e27576000816000905550600101610e0f565b5090565b9056fea165627a7a723058208291c33b30198c6879910d75f4077fce932eb0a297b19b17c1b8e652b853af6d0029",
  "source": "pragma solidity >=0.5.0 <0.9.0;\n\ncontract DStorage {\n  // Name\n  string public name = 'DStorage';\n  // Number of files\n  uint public fileCount = 0;\n  // Mapping fileId=>Struct \n  mapping( uint => File) public files;\n\n  // Struct\n  struct File{\n   uint fileId;\n   string fileHash;\n   uint fileSize;\n   string fileType;\n   string fileName;\n   string fileDescription;\n   uint uploadTime;\n   address payable uploader; \n  }\n\n\n  // Event\n  event FileUploaded(\n    uint fileId,\n    string fileHash,\n    uint fileSize,\n    string fileType,\n    string fileName,\n    string fileDescription,\n    uint uploadTime,\n    address payable uploader\n  );\n\n  constructor() public {\n  }\n\n  // Upload File function\n  function uploadFile(string memory _fileHash,uint _fileSize,string memory _fileType,string memory _fileName,string memory _fileDescription,uint) public {\n    // Make sure the file hash exists\n      require(bytes(_fileHash).length > 0);\n    // Make sure file type exists\n      require(bytes(_fileType).length > 0);\n    // Make sure file description exists\n      require(bytes(_fileDescription).length > 0);\n    // Make sure file fileName exists\n      require(bytes(_fileName).length > 0);\n    // Make sure uploader address exists\n      require(msg.sender!=address(0));\n    // Make sure file size is more than 0\n      require(_fileSize>0);\n\n\n    // Increment file id\n    fileCount++;\n    // Add File to the contract\n    files[fileCount] = File(fileCount, _fileHash, _fileSize, _fileType, _fileName, _fileDescription,block.timestamp, msg.sender);\n\n    // Trigger an event\n    emit FileUploaded(fileCount,_fileHash,_fileSize,_fileType,_fileName,_fileDescription,block.timestamp,msg.sender);\n  }\n\n}",
  "sourcePath": "/home/bhanu/blockchain/dstorage/src/contracts/DStorage.sol",
  "compiler": {
    "name": "solc",
    "version": "0.5.0+commit.1d4f565a.Emscripten.clang"
  },
  "schemaVersion": "3.0.1",
  "updatedAt": "2021-12-07T17:28:42.195Z",
  "devdoc": {
    "methods": {}
  },
  "userdoc": {
    "methods": {}
  }
}